{
  "_format": "hh-sol-artifact-1",
  "contractName": "HealthcareRecords",
  "sourceName": "contracts/HealthcareRecords.sol",
  "abi": [
    {
      "inputs": [],
      "stateMutability": "nonpayable",
      "type": "constructor"
    },
    {
      "inputs": [
        {
          "internalType": "uint256",
          "name": "_patientId",
          "type": "uint256"
        },
        {
          "internalType": "string",
          "name": "patientName",
          "type": "string"
        },
        {
          "internalType": "string",
          "name": "diagnosis",
          "type": "string"
        },
        {
          "internalType": "string",
          "name": "treatment",
          "type": "string"
        }
      ],
      "name": "addRecord",
      "outputs": [],
      "stateMutability": "nonpayable",
      "type": "function"
    },
    {
      "inputs": [
        {
          "internalType": "address",
          "name": "_provider",
          "type": "address"
        }
      ],
      "name": "authorizedProvider",
      "outputs": [],
      "stateMutability": "nonpayable",
      "type": "function"
    },
    {
      "inputs": [],
      "name": "getOwner",
      "outputs": [
        {
          "internalType": "address",
          "name": "",
          "type": "address"
        }
      ],
      "stateMutability": "view",
      "type": "function"
    },
    {
      "inputs": [
        {
          "internalType": "uint256",
          "name": "_patientId",
          "type": "uint256"
        }
      ],
      "name": "getPatientRecords",
      "outputs": [
        {
          "components": [
            {
              "internalType": "uint256",
              "name": "recordID",
              "type": "uint256"
            },
            {
              "internalType": "string",
              "name": "patientName",
              "type": "string"
            },
            {
              "internalType": "string",
              "name": "diagnosis",
              "type": "string"
            },
            {
              "internalType": "string",
              "name": "treatment",
              "type": "string"
            },
            {
              "internalType": "uint256",
              "name": "timestamp",
              "type": "uint256"
            }
          ],
          "internalType": "struct HealthcareRecords.Record[]",
          "name": "",
          "type": "tuple[]"
        }
      ],
      "stateMutability": "view",
      "type": "function"
    }
  ],
  "bytecode": "0x6080604052348015600f57600080fd5b50336000806101000a81548173ffffffffffffffffffffffffffffffffffffffff021916908373ffffffffffffffffffffffffffffffffffffffff160217905550610ff48061005f6000396000f3fe608060405234801561001057600080fd5b506004361061004c5760003560e01c80631a08a34814610051578063893d20e81461006d578063ac2330641461008b578063dce7e843146100a7575b600080fd5b61006b600480360381019061006691906107b5565b6100d7565b005b61007561024b565b60405161008291906108b1565b60405180910390f35b6100a560048036038101906100a091906108f8565b610274565b005b6100c160048036038101906100bc9190610925565b61035d565b6040516100ce9190610b26565b60405180910390f35b600260003373ffffffffffffffffffffffffffffffffffffffff1673ffffffffffffffffffffffffffffffffffffffff16815260200190815260200160002060009054906101000a900460ff16610163576040517f08c379a000000000000000000000000000000000000000000000000000000000815260040161015a90610bcb565b60405180910390fd5b60006001806000878152602001908152602001600020805490506101879190610c1a565b9050600160008681526020019081526020016000206040518060a0016040528083815260200186815260200185815260200184815260200142815250908060018154018082558091505060019003906000526020600020906005020160009091909190915060008201518160000155602082015181600101908161020b9190610e5a565b5060408201518160020190816102219190610e5a565b5060608201518160030190816102379190610e5a565b506080820151816004015550505050505050565b60008060009054906101000a900473ffffffffffffffffffffffffffffffffffffffff16905090565b60008054906101000a900473ffffffffffffffffffffffffffffffffffffffff1673ffffffffffffffffffffffffffffffffffffffff163373ffffffffffffffffffffffffffffffffffffffff1614610302576040517f08c379a00000000000000000000000000000000000000000000000000000000081526004016102f990610f9e565b60405180910390fd5b6001600260008373ffffffffffffffffffffffffffffffffffffffff1673ffffffffffffffffffffffffffffffffffffffff16815260200190815260200160002060006101000a81548160ff02191690831515021790555050565b6060600260003373ffffffffffffffffffffffffffffffffffffffff1673ffffffffffffffffffffffffffffffffffffffff16815260200190815260200160002060009054906101000a900460ff166103eb576040517f08c379a00000000000000000000000000000000000000000000000000000000081526004016103e290610bcb565b60405180910390fd5b60016000838152602001908152602001600020805480602002602001604051908101604052809291908181526020016000905b8282101561061a57838290600052602060002090600502016040518060a00160405290816000820154815260200160018201805461045b90610c7d565b80601f016020809104026020016040519081016040528092919081815260200182805461048790610c7d565b80156104d45780601f106104a9576101008083540402835291602001916104d4565b820191906000526020600020905b8154815290600101906020018083116104b757829003601f168201915b505050505081526020016002820180546104ed90610c7d565b80601f016020809104026020016040519081016040528092919081815260200182805461051990610c7d565b80156105665780601f1061053b57610100808354040283529160200191610566565b820191906000526020600020905b81548152906001019060200180831161054957829003601f168201915b5050505050815260200160038201805461057f90610c7d565b80601f01602080910402602001604051908101604052809291908181526020018280546105ab90610c7d565b80156105f85780601f106105cd576101008083540402835291602001916105f8565b820191906000526020600020905b8154815290600101906020018083116105db57829003601f168201915b505050505081526020016004820154815250508152602001906001019061041e565b505050509050919050565b6000604051905090565b600080fd5b600080fd5b6000819050919050565b61064c81610639565b811461065757600080fd5b50565b60008135905061066981610643565b92915050565b600080fd5b600080fd5b6000601f19601f8301169050919050565b7f4e487b7100000000000000000000000000000000000000000000000000000000600052604160045260246000fd5b6106c282610679565b810181811067ffffffffffffffff821117156106e1576106e061068a565b5b80604052505050565b60006106f4610625565b905061070082826106b9565b919050565b600067ffffffffffffffff8211156107205761071f61068a565b5b61072982610679565b9050602081019050919050565b82818337600083830152505050565b600061075861075384610705565b6106ea565b90508281526020810184848401111561077457610773610674565b5b61077f848285610736565b509392505050565b600082601f83011261079c5761079b61066f565b5b81356107ac848260208601610745565b91505092915050565b600080600080608085870312156107cf576107ce61062f565b5b60006107dd8782880161065a565b945050602085013567ffffffffffffffff8111156107fe576107fd610634565b5b61080a87828801610787565b935050604085013567ffffffffffffffff81111561082b5761082a610634565b5b61083787828801610787565b925050606085013567ffffffffffffffff81111561085857610857610634565b5b61086487828801610787565b91505092959194509250565b600073ffffffffffffffffffffffffffffffffffffffff82169050919050565b600061089b82610870565b9050919050565b6108ab81610890565b82525050565b60006020820190506108c660008301846108a2565b92915050565b6108d581610890565b81146108e057600080fd5b50565b6000813590506108f2816108cc565b92915050565b60006020828403121561090e5761090d61062f565b5b600061091c848285016108e3565b91505092915050565b60006020828403121561093b5761093a61062f565b5b60006109498482850161065a565b91505092915050565b600081519050919050565b600082825260208201905092915050565b6000819050602082019050919050565b61098781610639565b82525050565b600081519050919050565b600082825260208201905092915050565b60005b838110156109c75780820151818401526020810190506109ac565b60008484015250505050565b60006109de8261098d565b6109e88185610998565b93506109f88185602086016109a9565b610a0181610679565b840191505092915050565b600060a083016000830151610a24600086018261097e565b5060208301518482036020860152610a3c82826109d3565b91505060408301518482036040860152610a5682826109d3565b91505060608301518482036060860152610a7082826109d3565b9150506080830151610a85608086018261097e565b508091505092915050565b6000610a9c8383610a0c565b905092915050565b6000602082019050919050565b6000610abc82610952565b610ac6818561095d565b935083602082028501610ad88561096e565b8060005b85811015610b145784840389528151610af58582610a90565b9450610b0083610aa4565b925060208a01995050600181019050610adc565b50829750879550505050505092915050565b60006020820190508181036000830152610b408184610ab1565b905092915050565b600082825260208201905092915050565b7f4f6e6c7920617574686f72697a65642070726f76696465722063616e2070657260008201527f666f726d20746869732066756e6374696f6e0000000000000000000000000000602082015250565b6000610bb5603283610b48565b9150610bc082610b59565b604082019050919050565b60006020820190508181036000830152610be481610ba8565b9050919050565b7f4e487b7100000000000000000000000000000000000000000000000000000000600052601160045260246000fd5b6000610c2582610639565b9150610c3083610639565b9250828201905080821115610c4857610c47610beb565b5b92915050565b7f4e487b7100000000000000000000000000000000000000000000000000000000600052602260045260246000fd5b60006002820490506001821680610c9557607f821691505b602082108103610ca857610ca7610c4e565b5b50919050565b60008190508160005260206000209050919050565b60006020601f8301049050919050565b600082821b905092915050565b600060088302610d107fffffffffffffffffffffffffffffffffffffffffffffffffffffffffffffffff82610cd3565b610d1a8683610cd3565b95508019841693508086168417925050509392505050565b6000819050919050565b6000610d57610d52610d4d84610639565b610d32565b610639565b9050919050565b6000819050919050565b610d7183610d3c565b610d85610d7d82610d5e565b848454610ce0565b825550505050565b600090565b610d9a610d8d565b610da5818484610d68565b505050565b5b81811015610dc957610dbe600082610d92565b600181019050610dab565b5050565b601f821115610e0e57610ddf81610cae565b610de884610cc3565b81016020851015610df7578190505b610e0b610e0385610cc3565b830182610daa565b50505b505050565b600082821c905092915050565b6000610e3160001984600802610e13565b1980831691505092915050565b6000610e4a8383610e20565b9150826002028217905092915050565b610e638261098d565b67ffffffffffffffff811115610e7c57610e7b61068a565b5b610e868254610c7d565b610e91828285610dcd565b600060209050601f831160018114610ec45760008415610eb2578287015190505b610ebc8582610e3e565b865550610f24565b601f198416610ed286610cae565b60005b82811015610efa57848901518255600182019150602085019450602081019050610ed5565b86831015610f175784890151610f13601f891682610e20565b8355505b6001600288020188555050505b505050505050565b7f4f6e6c79206f776e65722063616e20706572666f726d20746869732066756e6360008201527f74696f6e00000000000000000000000000000000000000000000000000000000602082015250565b6000610f88602483610b48565b9150610f9382610f2c565b604082019050919050565b60006020820190508181036000830152610fb781610f7b565b905091905056fea26469706673582212209d5c626fbb79769ad4f9cff155b8e34c21f2088c9d95c483742eccee8cb5944864736f6c634300081c0033",
  "linkReferences": {},
  "deployedLinkReferences": {}
}